{
	"data": {
		"bytecode": {
			"linkReferences": {},
			"object": "60806040523480156200001157600080fd5b5060405162000a7738038062000a778339810160408190526200003491620000a9565b600380546001600160a01b031990811633179091556001805490911630179055600062000062828262000228565b50506001805463ffffffff909216600160a01b0268ff00000000ffffffff60a01b19909216919091179055620002f4565b634e487b7160e01b600052604160045260246000fd5b60008060408385031215620000bd57600080fd5b82518060030b8114620000cf57600080fd5b602084810151919350906001600160401b0380821115620000ef57600080fd5b818601915086601f8301126200010457600080fd5b81518181111562000119576200011962000093565b604051601f8201601f19908116603f0116810190838211818310171562000144576200014462000093565b8160405282815289868487010111156200015d57600080fd5b600093505b8284101562000181578484018601518185018701529285019262000162565b60008684830101528096505050505050509250929050565b600181811c90821680620001ae57607f821691505b602082108103620001cf57634e487b7160e01b600052602260045260246000fd5b50919050565b601f8211156200022357600081815260208120601f850160051c81016020861015620001fe5750805b601f850160051c820191505b818110156200021f578281556001016200020a565b5050505b505050565b81516001600160401b0381111562000244576200024462000093565b6200025c8162000255845462000199565b84620001d5565b602080601f8311600181146200029457600084156200027b5750858301515b600019600386901b1c1916600185901b1785556200021f565b600085815260208120601f198616915b82811015620002c557888601518255948401946001909101908401620002a4565b5085821015620002e45787850151600019600388901b60f8161c191681555b5050505050600190811b01905550565b61077380620003046000396000f3fe608060405234801561001057600080fd5b506004361061007d5760003560e01c806338cc48311161005b57806338cc483114610108578063923eda3714610123578063a2593cfc14610160578063c69821ce1461017557600080fd5b806317d7de7c146100825780632f22914d146100a0578063321489d4146100b5575b600080fd5b61008a610188565b6040516100979190610522565b60405180910390f35b6100b36100ae366004610587565b61021a565b005b6100c86100c33660046105f4565b610364565b6040516100979190815160010b815260208083015160ff169082015260408083015161ffff169082015260609182015160030b9181019190915260800190565b6001546040516001600160a01b039091168152602001610097565b6001546040805160ff600160e01b84041615158152600160a01b8304600390810b6020830152600160c01b90930490920b90820152606001610097565b610168610439565b604051610097919061060d565b6100b3610183366004610689565b6104cb565b606060008054610197906106ab565b80601f01602080910402602001604051908101604052809291908181526020018280546101c3906106ab565b80156102105780601f106101e557610100808354040283529160200191610210565b820191906000526020600020905b8154815290600101906020018083116101f357829003601f168201915b5050505050905090565b600154600160e01b900460ff161561026f5760405162461bcd60e51b8152602060048201526013602482015272151a19481c9bdd5d19481a185cc8195b991959606a1b60448201526064015b60405180910390fd5b6003546001600160a01b031633146102995760405162461bcd60e51b8152600401610266906106e5565b60408051608081018252600195860b815260ff9485166020820190815261ffff94851692820192835260039390930b6060820190815260028054978801815560005290517f405787fa12a823e0f2b7631cc41b3ba8828b3321ca811111fa75cd3aa3bb5ace909601805493519251915163ffffffff16650100000000000268ffffffff0000000000199286166301000000029290921668ffffffffffff0000001993909616620100000262ffffff199094169690941695909517919091171691909117919091179055565b60408051608081018252600080825260208201819052918101829052606081019190915260025482106103ce5760405162461bcd60e51b8152602060048201526012602482015271496e646578206f7574206f662072616e676560701b6044820152606401610266565b600282815481106103e1576103e1610727565b6000918252602091829020604080516080810182529290910154600181900b835262010000810460ff16938301939093526301000000830461ffff16908201526501000000000090910460030b606082015292915050565b60606002805480602002602001604051908101604052809291908181526020016000905b828210156104c25760008481526020908190206040805160808101825291850154600181810b845260ff620100008304168486015261ffff63010000008304169284019290925265010000000000900460030b6060830152908352909201910161045d565b50505050905090565b6003546001600160a01b031633146104f55760405162461bcd60e51b8152600401610266906106e5565b6001805463ffffffff909216600160c01b0264ffffffffff60c01b1990921691909117600160e01b179055565b600060208083528351808285015260005b8181101561054f57858101830151858201604001528201610533565b506000604082860101526040601f19601f8301168501019250505092915050565b8035600381900b811461058257600080fd5b919050565b6000806000806080858703121561059d57600080fd5b84358060010b81146105ae57600080fd5b9350602085013560ff811681146105c457600080fd5b9250604085013561ffff811681146105db57600080fd5b91506105e960608601610570565b905092959194509250565b60006020828403121561060657600080fd5b5035919050565b6020808252825182820181905260009190848201906040850190845b8181101561067d5761066a838551805160010b825260ff602082015116602083015261ffff6040820151166040830152606081015160030b60608301525050565b9284019260809290920191600101610629565b50909695505050505050565b60006020828403121561069b57600080fd5b6106a482610570565b9392505050565b600181811c908216806106bf57607f821691505b6020821081036106df57634e487b7160e01b600052602260045260246000fd5b50919050565b60208082526022908201527f4f6e6c79206f776e65722063616e2063616c6c20746869732066756e6374696f604082015261371760f11b606082015260800190565b634e487b7160e01b600052603260045260246000fdfea26469706673582212201e034e92deba043259112b7f7d83acceb6464d34f2d9b71bdbed751b8cf7fb4164736f6c63430008130033",
			"opcodes": "PUSH1 0x80 PUSH1 0x40 MSTORE CALLVALUE DUP1 ISZERO PUSH3 0x11 JUMPI PUSH1 0x0 DUP1 REVERT JUMPDEST POP PUSH1 0x40 MLOAD PUSH3 0xA77 CODESIZE SUB DUP1 PUSH3 0xA77 DUP4 CODECOPY DUP2 ADD PUSH1 0x40 DUP2 SWAP1 MSTORE PUSH3 0x34 SWAP2 PUSH3 0xA9 JUMP JUMPDEST PUSH1 0x3 DUP1 SLOAD PUSH1 0x1 PUSH1 0x1 PUSH1 0xA0 SHL SUB NOT SWAP1 DUP2 AND CALLER OR SWAP1 SWAP2 SSTORE PUSH1 0x1 DUP1 SLOAD SWAP1 SWAP2 AND ADDRESS OR SWAP1 SSTORE PUSH1 0x0 PUSH3 0x62 DUP3 DUP3 PUSH3 0x228 JUMP JUMPDEST POP POP PUSH1 0x1 DUP1 SLOAD PUSH4 0xFFFFFFFF SWAP1 SWAP3 AND PUSH1 0x1 PUSH1 0xA0 SHL MUL PUSH9 0xFF00000000FFFFFFFF PUSH1 0xA0 SHL NOT SWAP1 SWAP3 AND SWAP2 SWAP1 SWAP2 OR SWAP1 SSTORE PUSH3 0x2F4 JUMP JUMPDEST PUSH4 0x4E487B71 PUSH1 0xE0 SHL PUSH1 0x0 MSTORE PUSH1 0x41 PUSH1 0x4 MSTORE PUSH1 0x24 PUSH1 0x0 REVERT JUMPDEST PUSH1 0x0 DUP1 PUSH1 0x40 DUP4 DUP6 SUB SLT ISZERO PUSH3 0xBD JUMPI PUSH1 0x0 DUP1 REVERT JUMPDEST DUP3 MLOAD DUP1 PUSH1 0x3 SIGNEXTEND DUP2 EQ PUSH3 0xCF JUMPI PUSH1 0x0 DUP1 REVERT JUMPDEST PUSH1 0x20 DUP5 DUP2 ADD MLOAD SWAP2 SWAP4 POP SWAP1 PUSH1 0x1 PUSH1 0x1 PUSH1 0x40 SHL SUB DUP1 DUP3 GT ISZERO PUSH3 0xEF JUMPI PUSH1 0x0 DUP1 REVERT JUMPDEST DUP2 DUP7 ADD SWAP2 POP DUP7 PUSH1 0x1F DUP4 ADD SLT PUSH3 0x104 JUMPI PUSH1 0x0 DUP1 REVERT JUMPDEST DUP2 MLOAD DUP2 DUP2 GT ISZERO PUSH3 0x119 JUMPI PUSH3 0x119 PUSH3 0x93 JUMP JUMPDEST PUSH1 0x40 MLOAD PUSH1 0x1F DUP3 ADD PUSH1 0x1F NOT SWAP1 DUP2 AND PUSH1 0x3F ADD AND DUP2 ADD SWAP1 DUP4 DUP3 GT DUP2 DUP4 LT OR ISZERO PUSH3 0x144 JUMPI PUSH3 0x144 PUSH3 0x93 JUMP JUMPDEST DUP2 PUSH1 0x40 MSTORE DUP3 DUP2 MSTORE DUP10 DUP7 DUP5 DUP8 ADD ADD GT ISZERO PUSH3 0x15D JUMPI PUSH1 0x0 DUP1 REVERT JUMPDEST PUSH1 0x0 SWAP4 POP JUMPDEST DUP3 DUP5 LT ISZERO PUSH3 0x181 JUMPI DUP5 DUP5 ADD DUP7 ADD MLOAD DUP2 DUP6 ADD DUP8 ADD MSTORE SWAP3 DUP6 ADD SWAP3 PUSH3 0x162 JUMP JUMPDEST PUSH1 0x0 DUP7 DUP5 DUP4 ADD ADD MSTORE DUP1 SWAP7 POP POP POP POP POP POP POP SWAP3 POP SWAP3 SWAP1 POP JUMP JUMPDEST PUSH1 0x1 DUP2 DUP2 SHR SWAP1 DUP3 AND DUP1 PUSH3 0x1AE JUMPI PUSH1 0x7F DUP3 AND SWAP2 POP JUMPDEST PUSH1 0x20 DUP3 LT DUP2 SUB PUSH3 0x1CF JUMPI PUSH4 0x4E487B71 PUSH1 0xE0 SHL PUSH1 0x0 MSTORE PUSH1 0x22 PUSH1 0x4 MSTORE PUSH1 0x24 PUSH1 0x0 REVERT JUMPDEST POP SWAP2 SWAP1 POP JUMP JUMPDEST PUSH1 0x1F DUP3 GT ISZERO PUSH3 0x223 JUMPI PUSH1 0x0 DUP2 DUP2 MSTORE PUSH1 0x20 DUP2 KECCAK256 PUSH1 0x1F DUP6 ADD PUSH1 0x5 SHR DUP2 ADD PUSH1 0x20 DUP7 LT ISZERO PUSH3 0x1FE JUMPI POP DUP1 JUMPDEST PUSH1 0x1F DUP6 ADD PUSH1 0x5 SHR DUP3 ADD SWAP2 POP JUMPDEST DUP2 DUP2 LT ISZERO PUSH3 0x21F JUMPI DUP3 DUP2 SSTORE PUSH1 0x1 ADD PUSH3 0x20A JUMP JUMPDEST POP POP POP JUMPDEST POP POP POP JUMP JUMPDEST DUP2 MLOAD PUSH1 0x1 PUSH1 0x1 PUSH1 0x40 SHL SUB DUP2 GT ISZERO PUSH3 0x244 JUMPI PUSH3 0x244 PUSH3 0x93 JUMP JUMPDEST PUSH3 0x25C DUP2 PUSH3 0x255 DUP5 SLOAD PUSH3 0x199 JUMP JUMPDEST DUP5 PUSH3 0x1D5 JUMP JUMPDEST PUSH1 0x20 DUP1 PUSH1 0x1F DUP4 GT PUSH1 0x1 DUP2 EQ PUSH3 0x294 JUMPI PUSH1 0x0 DUP5 ISZERO PUSH3 0x27B JUMPI POP DUP6 DUP4 ADD MLOAD JUMPDEST PUSH1 0x0 NOT PUSH1 0x3 DUP7 SWAP1 SHL SHR NOT AND PUSH1 0x1 DUP6 SWAP1 SHL OR DUP6 SSTORE PUSH3 0x21F JUMP JUMPDEST PUSH1 0x0 DUP6 DUP2 MSTORE PUSH1 0x20 DUP2 KECCAK256 PUSH1 0x1F NOT DUP7 AND SWAP2 JUMPDEST DUP3 DUP2 LT ISZERO PUSH3 0x2C5 JUMPI DUP9 DUP7 ADD MLOAD DUP3 SSTORE SWAP5 DUP5 ADD SWAP5 PUSH1 0x1 SWAP1 SWAP2 ADD SWAP1 DUP5 ADD PUSH3 0x2A4 JUMP JUMPDEST POP DUP6 DUP3 LT ISZERO PUSH3 0x2E4 JUMPI DUP8 DUP6 ADD MLOAD PUSH1 0x0 NOT PUSH1 0x3 DUP9 SWAP1 SHL PUSH1 0xF8 AND SHR NOT AND DUP2 SSTORE JUMPDEST POP POP POP POP POP PUSH1 0x1 SWAP1 DUP2 SHL ADD SWAP1 SSTORE POP JUMP JUMPDEST PUSH2 0x773 DUP1 PUSH3 0x304 PUSH1 0x0 CODECOPY PUSH1 0x0 RETURN INVALID PUSH1 0x80 PUSH1 0x40 MSTORE CALLVALUE DUP1 ISZERO PUSH2 0x10 JUMPI PUSH1 0x0 DUP1 REVERT JUMPDEST POP PUSH1 0x4 CALLDATASIZE LT PUSH2 0x7D JUMPI PUSH1 0x0 CALLDATALOAD PUSH1 0xE0 SHR DUP1 PUSH4 0x38CC4831 GT PUSH2 0x5B JUMPI DUP1 PUSH4 0x38CC4831 EQ PUSH2 0x108 JUMPI DUP1 PUSH4 0x923EDA37 EQ PUSH2 0x123 JUMPI DUP1 PUSH4 0xA2593CFC EQ PUSH2 0x160 JUMPI DUP1 PUSH4 0xC69821CE EQ PUSH2 0x175 JUMPI PUSH1 0x0 DUP1 REVERT JUMPDEST DUP1 PUSH4 0x17D7DE7C EQ PUSH2 0x82 JUMPI DUP1 PUSH4 0x2F22914D EQ PUSH2 0xA0 JUMPI DUP1 PUSH4 0x321489D4 EQ PUSH2 0xB5 JUMPI JUMPDEST PUSH1 0x0 DUP1 REVERT JUMPDEST PUSH2 0x8A PUSH2 0x188 JUMP JUMPDEST PUSH1 0x40 MLOAD PUSH2 0x97 SWAP2 SWAP1 PUSH2 0x522 JUMP JUMPDEST PUSH1 0x40 MLOAD DUP1 SWAP2 SUB SWAP1 RETURN JUMPDEST PUSH2 0xB3 PUSH2 0xAE CALLDATASIZE PUSH1 0x4 PUSH2 0x587 JUMP JUMPDEST PUSH2 0x21A JUMP JUMPDEST STOP JUMPDEST PUSH2 0xC8 PUSH2 0xC3 CALLDATASIZE PUSH1 0x4 PUSH2 0x5F4 JUMP JUMPDEST PUSH2 0x364 JUMP JUMPDEST PUSH1 0x40 MLOAD PUSH2 0x97 SWAP2 SWAP1 DUP2 MLOAD PUSH1 0x1 SIGNEXTEND DUP2 MSTORE PUSH1 0x20 DUP1 DUP4 ADD MLOAD PUSH1 0xFF AND SWAP1 DUP3 ADD MSTORE PUSH1 0x40 DUP1 DUP4 ADD MLOAD PUSH2 0xFFFF AND SWAP1 DUP3 ADD MSTORE PUSH1 0x60 SWAP2 DUP3 ADD MLOAD PUSH1 0x3 SIGNEXTEND SWAP2 DUP2 ADD SWAP2 SWAP1 SWAP2 MSTORE PUSH1 0x80 ADD SWAP1 JUMP JUMPDEST PUSH1 0x1 SLOAD PUSH1 0x40 MLOAD PUSH1 0x1 PUSH1 0x1 PUSH1 0xA0 SHL SUB SWAP1 SWAP2 AND DUP2 MSTORE PUSH1 0x20 ADD PUSH2 0x97 JUMP JUMPDEST PUSH1 0x1 SLOAD PUSH1 0x40 DUP1 MLOAD PUSH1 0xFF PUSH1 0x1 PUSH1 0xE0 SHL DUP5 DIV AND ISZERO ISZERO DUP2 MSTORE PUSH1 0x1 PUSH1 0xA0 SHL DUP4 DIV PUSH1 0x3 SWAP1 DUP2 SIGNEXTEND PUSH1 0x20 DUP4 ADD MSTORE PUSH1 0x1 PUSH1 0xC0 SHL SWAP1 SWAP4 DIV SWAP1 SWAP3 SIGNEXTEND SWAP1 DUP3 ADD MSTORE PUSH1 0x60 ADD PUSH2 0x97 JUMP JUMPDEST PUSH2 0x168 PUSH2 0x439 JUMP JUMPDEST PUSH1 0x40 MLOAD PUSH2 0x97 SWAP2 SWAP1 PUSH2 0x60D JUMP JUMPDEST PUSH2 0xB3 PUSH2 0x183 CALLDATASIZE PUSH1 0x4 PUSH2 0x689 JUMP JUMPDEST PUSH2 0x4CB JUMP JUMPDEST PUSH1 0x60 PUSH1 0x0 DUP1 SLOAD PUSH2 0x197 SWAP1 PUSH2 0x6AB JUMP JUMPDEST DUP1 PUSH1 0x1F ADD PUSH1 0x20 DUP1 SWAP2 DIV MUL PUSH1 0x20 ADD PUSH1 0x40 MLOAD SWAP1 DUP2 ADD PUSH1 0x40 MSTORE DUP1 SWAP3 SWAP2 SWAP1 DUP2 DUP2 MSTORE PUSH1 0x20 ADD DUP3 DUP1 SLOAD PUSH2 0x1C3 SWAP1 PUSH2 0x6AB JUMP JUMPDEST DUP1 ISZERO PUSH2 0x210 JUMPI DUP1 PUSH1 0x1F LT PUSH2 0x1E5 JUMPI PUSH2 0x100 DUP1 DUP4 SLOAD DIV MUL DUP4 MSTORE SWAP2 PUSH1 0x20 ADD SWAP2 PUSH2 0x210 JUMP JUMPDEST DUP3 ADD SWAP2 SWAP1 PUSH1 0x0 MSTORE PUSH1 0x20 PUSH1 0x0 KECCAK256 SWAP1 JUMPDEST DUP2 SLOAD DUP2 MSTORE SWAP1 PUSH1 0x1 ADD SWAP1 PUSH1 0x20 ADD DUP1 DUP4 GT PUSH2 0x1F3 JUMPI DUP3 SWAP1 SUB PUSH1 0x1F AND DUP3 ADD SWAP2 JUMPDEST POP POP POP POP POP SWAP1 POP SWAP1 JUMP JUMPDEST PUSH1 0x1 SLOAD PUSH1 0x1 PUSH1 0xE0 SHL SWAP1 DIV PUSH1 0xFF AND ISZERO PUSH2 0x26F JUMPI PUSH1 0x40 MLOAD PUSH3 0x461BCD PUSH1 0xE5 SHL DUP2 MSTORE PUSH1 0x20 PUSH1 0x4 DUP3 ADD MSTORE PUSH1 0x13 PUSH1 0x24 DUP3 ADD MSTORE PUSH19 0x151A19481C9BDD5D19481A185CC8195B991959 PUSH1 0x6A SHL PUSH1 0x44 DUP3 ADD MSTORE PUSH1 0x64 ADD JUMPDEST PUSH1 0x40 MLOAD DUP1 SWAP2 SUB SWAP1 REVERT JUMPDEST PUSH1 0x3 SLOAD PUSH1 0x1 PUSH1 0x1 PUSH1 0xA0 SHL SUB AND CALLER EQ PUSH2 0x299 JUMPI PUSH1 0x40 MLOAD PUSH3 0x461BCD PUSH1 0xE5 SHL DUP2 MSTORE PUSH1 0x4 ADD PUSH2 0x266 SWAP1 PUSH2 0x6E5 JUMP JUMPDEST PUSH1 0x40 DUP1 MLOAD PUSH1 0x80 DUP2 ADD DUP3 MSTORE PUSH1 0x1 SWAP6 DUP7 SIGNEXTEND DUP2 MSTORE PUSH1 0xFF SWAP5 DUP6 AND PUSH1 0x20 DUP3 ADD SWAP1 DUP2 MSTORE PUSH2 0xFFFF SWAP5 DUP6 AND SWAP3 DUP3 ADD SWAP3 DUP4 MSTORE PUSH1 0x3 SWAP4 SWAP1 SWAP4 SIGNEXTEND PUSH1 0x60 DUP3 ADD SWAP1 DUP2 MSTORE PUSH1 0x2 DUP1 SLOAD SWAP8 DUP9 ADD DUP2 SSTORE PUSH1 0x0 MSTORE SWAP1 MLOAD PUSH32 0x405787FA12A823E0F2B7631CC41B3BA8828B3321CA811111FA75CD3AA3BB5ACE SWAP1 SWAP7 ADD DUP1 SLOAD SWAP4 MLOAD SWAP3 MLOAD SWAP2 MLOAD PUSH4 0xFFFFFFFF AND PUSH6 0x10000000000 MUL PUSH9 0xFFFFFFFF0000000000 NOT SWAP3 DUP7 AND PUSH4 0x1000000 MUL SWAP3 SWAP1 SWAP3 AND PUSH9 0xFFFFFFFFFFFF000000 NOT SWAP4 SWAP1 SWAP7 AND PUSH3 0x10000 MUL PUSH3 0xFFFFFF NOT SWAP1 SWAP5 AND SWAP7 SWAP1 SWAP5 AND SWAP6 SWAP1 SWAP6 OR SWAP2 SWAP1 SWAP2 OR AND SWAP2 SWAP1 SWAP2 OR SWAP2 SWAP1 SWAP2 OR SWAP1 SSTORE JUMP JUMPDEST PUSH1 0x40 DUP1 MLOAD PUSH1 0x80 DUP2 ADD DUP3 MSTORE PUSH1 0x0 DUP1 DUP3 MSTORE PUSH1 0x20 DUP3 ADD DUP2 SWAP1 MSTORE SWAP2 DUP2 ADD DUP3 SWAP1 MSTORE PUSH1 0x60 DUP2 ADD SWAP2 SWAP1 SWAP2 MSTORE PUSH1 0x2 SLOAD DUP3 LT PUSH2 0x3CE JUMPI PUSH1 0x40 MLOAD PUSH3 0x461BCD PUSH1 0xE5 SHL DUP2 MSTORE PUSH1 0x20 PUSH1 0x4 DUP3 ADD MSTORE PUSH1 0x12 PUSH1 0x24 DUP3 ADD MSTORE PUSH18 0x496E646578206F7574206F662072616E6765 PUSH1 0x70 SHL PUSH1 0x44 DUP3 ADD MSTORE PUSH1 0x64 ADD PUSH2 0x266 JUMP JUMPDEST PUSH1 0x2 DUP3 DUP2 SLOAD DUP2 LT PUSH2 0x3E1 JUMPI PUSH2 0x3E1 PUSH2 0x727 JUMP JUMPDEST PUSH1 0x0 SWAP2 DUP3 MSTORE PUSH1 0x20 SWAP2 DUP3 SWAP1 KECCAK256 PUSH1 0x40 DUP1 MLOAD PUSH1 0x80 DUP2 ADD DUP3 MSTORE SWAP3 SWAP1 SWAP2 ADD SLOAD PUSH1 0x1 DUP2 SWAP1 SIGNEXTEND DUP4 MSTORE PUSH3 0x10000 DUP2 DIV PUSH1 0xFF AND SWAP4 DUP4 ADD SWAP4 SWAP1 SWAP4 MSTORE PUSH4 0x1000000 DUP4 DIV PUSH2 0xFFFF AND SWAP1 DUP3 ADD MSTORE PUSH6 0x10000000000 SWAP1 SWAP2 DIV PUSH1 0x3 SIGNEXTEND PUSH1 0x60 DUP3 ADD MSTORE SWAP3 SWAP2 POP POP JUMP JUMPDEST PUSH1 0x60 PUSH1 0x2 DUP1 SLOAD DUP1 PUSH1 0x20 MUL PUSH1 0x20 ADD PUSH1 0x40 MLOAD SWAP1 DUP2 ADD PUSH1 0x40 MSTORE DUP1 SWAP3 SWAP2 SWAP1 DUP2 DUP2 MSTORE PUSH1 0x20 ADD PUSH1 0x0 SWAP1 JUMPDEST DUP3 DUP3 LT ISZERO PUSH2 0x4C2 JUMPI PUSH1 0x0 DUP5 DUP2 MSTORE PUSH1 0x20 SWAP1 DUP2 SWAP1 KECCAK256 PUSH1 0x40 DUP1 MLOAD PUSH1 0x80 DUP2 ADD DUP3 MSTORE SWAP2 DUP6 ADD SLOAD PUSH1 0x1 DUP2 DUP2 SIGNEXTEND DUP5 MSTORE PUSH1 0xFF PUSH3 0x10000 DUP4 DIV AND DUP5 DUP7 ADD MSTORE PUSH2 0xFFFF PUSH4 0x1000000 DUP4 DIV AND SWAP3 DUP5 ADD SWAP3 SWAP1 SWAP3 MSTORE PUSH6 0x10000000000 SWAP1 DIV PUSH1 0x3 SIGNEXTEND PUSH1 0x60 DUP4 ADD MSTORE SWAP1 DUP4 MSTORE SWAP1 SWAP3 ADD SWAP2 ADD PUSH2 0x45D JUMP JUMPDEST POP POP POP POP SWAP1 POP SWAP1 JUMP JUMPDEST PUSH1 0x3 SLOAD PUSH1 0x1 PUSH1 0x1 PUSH1 0xA0 SHL SUB AND CALLER EQ PUSH2 0x4F5 JUMPI PUSH1 0x40 MLOAD PUSH3 0x461BCD PUSH1 0xE5 SHL DUP2 MSTORE PUSH1 0x4 ADD PUSH2 0x266 SWAP1 PUSH2 0x6E5 JUMP JUMPDEST PUSH1 0x1 DUP1 SLOAD PUSH4 0xFFFFFFFF SWAP1 SWAP3 AND PUSH1 0x1 PUSH1 0xC0 SHL MUL PUSH5 0xFFFFFFFFFF PUSH1 0xC0 SHL NOT SWAP1 SWAP3 AND SWAP2 SWAP1 SWAP2 OR PUSH1 0x1 PUSH1 0xE0 SHL OR SWAP1 SSTORE JUMP JUMPDEST PUSH1 0x0 PUSH1 0x20 DUP1 DUP4 MSTORE DUP4 MLOAD DUP1 DUP3 DUP6 ADD MSTORE PUSH1 0x0 JUMPDEST DUP2 DUP2 LT ISZERO PUSH2 0x54F JUMPI DUP6 DUP2 ADD DUP4 ADD MLOAD DUP6 DUP3 ADD PUSH1 0x40 ADD MSTORE DUP3 ADD PUSH2 0x533 JUMP JUMPDEST POP PUSH1 0x0 PUSH1 0x40 DUP3 DUP7 ADD ADD MSTORE PUSH1 0x40 PUSH1 0x1F NOT PUSH1 0x1F DUP4 ADD AND DUP6 ADD ADD SWAP3 POP POP POP SWAP3 SWAP2 POP POP JUMP JUMPDEST DUP1 CALLDATALOAD PUSH1 0x3 DUP2 SWAP1 SIGNEXTEND DUP2 EQ PUSH2 0x582 JUMPI PUSH1 0x0 DUP1 REVERT JUMPDEST SWAP2 SWAP1 POP JUMP JUMPDEST PUSH1 0x0 DUP1 PUSH1 0x0 DUP1 PUSH1 0x80 DUP6 DUP8 SUB SLT ISZERO PUSH2 0x59D JUMPI PUSH1 0x0 DUP1 REVERT JUMPDEST DUP5 CALLDATALOAD DUP1 PUSH1 0x1 SIGNEXTEND DUP2 EQ PUSH2 0x5AE JUMPI PUSH1 0x0 DUP1 REVERT JUMPDEST SWAP4 POP PUSH1 0x20 DUP6 ADD CALLDATALOAD PUSH1 0xFF DUP2 AND DUP2 EQ PUSH2 0x5C4 JUMPI PUSH1 0x0 DUP1 REVERT JUMPDEST SWAP3 POP PUSH1 0x40 DUP6 ADD CALLDATALOAD PUSH2 0xFFFF DUP2 AND DUP2 EQ PUSH2 0x5DB JUMPI PUSH1 0x0 DUP1 REVERT JUMPDEST SWAP2 POP PUSH2 0x5E9 PUSH1 0x60 DUP7 ADD PUSH2 0x570 JUMP JUMPDEST SWAP1 POP SWAP3 SWAP6 SWAP2 SWAP5 POP SWAP3 POP JUMP JUMPDEST PUSH1 0x0 PUSH1 0x20 DUP3 DUP5 SUB SLT ISZERO PUSH2 0x606 JUMPI PUSH1 0x0 DUP1 REVERT JUMPDEST POP CALLDATALOAD SWAP2 SWAP1 POP JUMP JUMPDEST PUSH1 0x20 DUP1 DUP3 MSTORE DUP3 MLOAD DUP3 DUP3 ADD DUP2 SWAP1 MSTORE PUSH1 0x0 SWAP2 SWAP1 DUP5 DUP3 ADD SWAP1 PUSH1 0x40 DUP6 ADD SWAP1 DUP5 JUMPDEST DUP2 DUP2 LT ISZERO PUSH2 0x67D JUMPI PUSH2 0x66A DUP4 DUP6 MLOAD DUP1 MLOAD PUSH1 0x1 SIGNEXTEND DUP3 MSTORE PUSH1 0xFF PUSH1 0x20 DUP3 ADD MLOAD AND PUSH1 0x20 DUP4 ADD MSTORE PUSH2 0xFFFF PUSH1 0x40 DUP3 ADD MLOAD AND PUSH1 0x40 DUP4 ADD MSTORE PUSH1 0x60 DUP2 ADD MLOAD PUSH1 0x3 SIGNEXTEND PUSH1 0x60 DUP4 ADD MSTORE POP POP JUMP JUMPDEST SWAP3 DUP5 ADD SWAP3 PUSH1 0x80 SWAP3 SWAP1 SWAP3 ADD SWAP2 PUSH1 0x1 ADD PUSH2 0x629 JUMP JUMPDEST POP SWAP1 SWAP7 SWAP6 POP POP POP POP POP POP JUMP JUMPDEST PUSH1 0x0 PUSH1 0x20 DUP3 DUP5 SUB SLT ISZERO PUSH2 0x69B JUMPI PUSH1 0x0 DUP1 REVERT JUMPDEST PUSH2 0x6A4 DUP3 PUSH2 0x570 JUMP JUMPDEST SWAP4 SWAP3 POP POP POP JUMP JUMPDEST PUSH1 0x1 DUP2 DUP2 SHR SWAP1 DUP3 AND DUP1 PUSH2 0x6BF JUMPI PUSH1 0x7F DUP3 AND SWAP2 POP JUMPDEST PUSH1 0x20 DUP3 LT DUP2 SUB PUSH2 0x6DF JUMPI PUSH4 0x4E487B71 PUSH1 0xE0 SHL PUSH1 0x0 MSTORE PUSH1 0x22 PUSH1 0x4 MSTORE PUSH1 0x24 PUSH1 0x0 REVERT JUMPDEST POP SWAP2 SWAP1 POP JUMP JUMPDEST PUSH1 0x20 DUP1 DUP3 MSTORE PUSH1 0x22 SWAP1 DUP3 ADD MSTORE PUSH32 0x4F6E6C79206F776E65722063616E2063616C6C20746869732066756E6374696F PUSH1 0x40 DUP3 ADD MSTORE PUSH2 0x3717 PUSH1 0xF1 SHL PUSH1 0x60 DUP3 ADD MSTORE PUSH1 0x80 ADD SWAP1 JUMP JUMPDEST PUSH4 0x4E487B71 PUSH1 0xE0 SHL PUSH1 0x0 MSTORE PUSH1 0x32 PUSH1 0x4 MSTORE PUSH1 0x24 PUSH1 0x0 REVERT INVALID LOG2 PUSH5 0x6970667358 0x22 SLT KECCAK256 0x1E SUB 0x4E SWAP3 0xDE 0xBA DIV ORIGIN MSIZE GT 0x2B PUSH32 0x7D83ACCEB6464D34F2D9B71BDBED751B8CF7FB4164736F6C6343000813003300 "
		},
		"gasEstimates": {
			"creation": {
				"codeDepositCost": "381400",
				"executionCost": "infinite",
				"totalCost": "infinite"
			},
			"external": {
				"end(int32)": "26781",
				"getAddress()": "2301",
				"getDataByIndex(uint256)": "7158",
				"getName()": "infinite",
				"getRawData()": "infinite",
				"getResume()": "2423",
				"update(int16,uint8,uint16,int32)": "53535"
			}
		},
		"methodIdentifiers": {
			"end(int32)": "c69821ce",
			"getAddress()": "38cc4831",
			"getDataByIndex(uint256)": "321489d4",
			"getName()": "17d7de7c",
			"getRawData()": "a2593cfc",
			"getResume()": "923eda37",
			"update(int16,uint8,uint16,int32)": "2f22914d"
		}
	},
	"abi": [
		{
			"inputs": [
				{
					"internalType": "int32",
					"name": "_time",
					"type": "int32"
				},
				{
					"internalType": "string",
					"name": "_name",
					"type": "string"
				}
			],
			"stateMutability": "nonpayable",
			"type": "constructor"
		},
		{
			"inputs": [
				{
					"internalType": "int32",
					"name": "_time",
					"type": "int32"
				}
			],
			"name": "end",
			"outputs": [],
			"stateMutability": "nonpayable",
			"type": "function"
		},
		{
			"inputs": [],
			"name": "getAddress",
			"outputs": [
				{
					"internalType": "address",
					"name": "",
					"type": "address"
				}
			],
			"stateMutability": "view",
			"type": "function"
		},
		{
			"inputs": [
				{
					"internalType": "uint256",
					"name": "index",
					"type": "uint256"
				}
			],
			"name": "getDataByIndex",
			"outputs": [
				{
					"components": [
						{
							"internalType": "int16",
							"name": "temperature",
							"type": "int16"
						},
						{
							"internalType": "uint8",
							"name": "humidity",
							"type": "uint8"
						},
						{
							"internalType": "uint16",
							"name": "weight",
							"type": "uint16"
						},
						{
							"internalType": "int32",
							"name": "timestamp",
							"type": "int32"
						}
					],
					"internalType": "struct SensorsData",
					"name": "",
					"type": "tuple"
				}
			],
			"stateMutability": "view",
			"type": "function"
		},
		{
			"inputs": [],
			"name": "getName",
			"outputs": [
				{
					"internalType": "string",
					"name": "",
					"type": "string"
				}
			],
			"stateMutability": "view",
			"type": "function"
		},
		{
			"inputs": [],
			"name": "getRawData",
			"outputs": [
				{
					"components": [
						{
							"internalType": "int16",
							"name": "temperature",
							"type": "int16"
						},
						{
							"internalType": "uint8",
							"name": "humidity",
							"type": "uint8"
						},
						{
							"internalType": "uint16",
							"name": "weight",
							"type": "uint16"
						},
						{
							"internalType": "int32",
							"name": "timestamp",
							"type": "int32"
						}
					],
					"internalType": "struct SensorsData[]",
					"name": "",
					"type": "tuple[]"
				}
			],
			"stateMutability": "view",
			"type": "function"
		},
		{
			"inputs": [],
			"name": "getResume",
			"outputs": [
				{
					"internalType": "bool",
					"name": "",
					"type": "bool"
				},
				{
					"internalType": "int32",
					"name": "",
					"type": "int32"
				},
				{
					"internalType": "int32",
					"name": "",
					"type": "int32"
				}
			],
			"stateMutability": "view",
			"type": "function"
		},
		{
			"inputs": [
				{
					"internalType": "int16",
					"name": "_temperature",
					"type": "int16"
				},
				{
					"internalType": "uint8",
					"name": "_humidity",
					"type": "uint8"
				},
				{
					"internalType": "uint16",
					"name": "_weight",
					"type": "uint16"
				},
				{
					"internalType": "int32",
					"name": "_date",
					"type": "int32"
				}
			],
			"name": "update",
			"outputs": [],
			"stateMutability": "nonpayable",
			"type": "function"
		}
	]
}